{
  "_format": "hh-sol-artifact-1",
  "contractName": "NFTMinter",
  "sourceName": "contracts/NFTMinter.sol",
  "abi": [
    {
      "inputs": [],
      "stateMutability": "nonpayable",
      "type": "constructor"
    },
    {
      "anonymous": false,
      "inputs": [
        {
          "indexed": true,
          "internalType": "address",
          "name": "owner",
          "type": "address"
        },
        {
          "indexed": true,
          "internalType": "address",
          "name": "approved",
          "type": "address"
        },
        {
          "indexed": true,
          "internalType": "uint256",
          "name": "tokenId",
          "type": "uint256"
        }
      ],
      "name": "Approval",
      "type": "event"
    },
    {
      "anonymous": false,
      "inputs": [
        {
          "indexed": true,
          "internalType": "address",
          "name": "owner",
          "type": "address"
        },
        {
          "indexed": true,
          "internalType": "address",
          "name": "operator",
          "type": "address"
        },
        {
          "indexed": false,
          "internalType": "bool",
          "name": "approved",
          "type": "bool"
        }
      ],
      "name": "ApprovalForAll",
      "type": "event"
    },
    {
      "inputs": [
        {
          "internalType": "address",
          "name": "to",
          "type": "address"
        },
        {
          "internalType": "uint256",
          "name": "tokenId",
          "type": "uint256"
        }
      ],
      "name": "approve",
      "outputs": [],
      "stateMutability": "nonpayable",
      "type": "function"
    },
    {
      "anonymous": false,
      "inputs": [
        {
          "indexed": true,
          "internalType": "address",
          "name": "previousOwner",
          "type": "address"
        },
        {
          "indexed": true,
          "internalType": "address",
          "name": "newOwner",
          "type": "address"
        }
      ],
      "name": "OwnershipTransferred",
      "type": "event"
    },
    {
      "inputs": [],
      "name": "renounceOwnership",
      "outputs": [],
      "stateMutability": "nonpayable",
      "type": "function"
    },
    {
      "inputs": [
        {
          "internalType": "address",
          "name": "to",
          "type": "address"
        },
        {
          "internalType": "string",
          "name": "uri",
          "type": "string"
        }
      ],
      "name": "safeMint",
      "outputs": [],
      "stateMutability": "nonpayable",
      "type": "function"
    },
    {
      "inputs": [
        {
          "internalType": "address",
          "name": "from",
          "type": "address"
        },
        {
          "internalType": "address",
          "name": "to",
          "type": "address"
        },
        {
          "internalType": "uint256",
          "name": "tokenId",
          "type": "uint256"
        }
      ],
      "name": "safeTransferFrom",
      "outputs": [],
      "stateMutability": "nonpayable",
      "type": "function"
    },
    {
      "inputs": [
        {
          "internalType": "address",
          "name": "from",
          "type": "address"
        },
        {
          "internalType": "address",
          "name": "to",
          "type": "address"
        },
        {
          "internalType": "uint256",
          "name": "tokenId",
          "type": "uint256"
        },
        {
          "internalType": "bytes",
          "name": "_data",
          "type": "bytes"
        }
      ],
      "name": "safeTransferFrom",
      "outputs": [],
      "stateMutability": "nonpayable",
      "type": "function"
    },
    {
      "inputs": [
        {
          "internalType": "address",
          "name": "operator",
          "type": "address"
        },
        {
          "internalType": "bool",
          "name": "approved",
          "type": "bool"
        }
      ],
      "name": "setApprovalForAll",
      "outputs": [],
      "stateMutability": "nonpayable",
      "type": "function"
    },
    {
      "anonymous": false,
      "inputs": [
        {
          "indexed": true,
          "internalType": "address",
          "name": "from",
          "type": "address"
        },
        {
          "indexed": true,
          "internalType": "address",
          "name": "to",
          "type": "address"
        },
        {
          "indexed": true,
          "internalType": "uint256",
          "name": "tokenId",
          "type": "uint256"
        }
      ],
      "name": "Transfer",
      "type": "event"
    },
    {
      "inputs": [
        {
          "internalType": "address",
          "name": "from",
          "type": "address"
        },
        {
          "internalType": "address",
          "name": "to",
          "type": "address"
        },
        {
          "internalType": "uint256",
          "name": "tokenId",
          "type": "uint256"
        }
      ],
      "name": "transferFrom",
      "outputs": [],
      "stateMutability": "nonpayable",
      "type": "function"
    },
    {
      "inputs": [
        {
          "internalType": "address",
          "name": "newOwner",
          "type": "address"
        }
      ],
      "name": "transferOwnership",
      "outputs": [],
      "stateMutability": "nonpayable",
      "type": "function"
    },
    {
      "inputs": [
        {
          "internalType": "address",
          "name": "owner",
          "type": "address"
        }
      ],
      "name": "balanceOf",
      "outputs": [
        {
          "internalType": "uint256",
          "name": "",
          "type": "uint256"
        }
      ],
      "stateMutability": "view",
      "type": "function"
    },
    {
      "inputs": [
        {
          "internalType": "uint256",
          "name": "tokenId",
          "type": "uint256"
        }
      ],
      "name": "getApproved",
      "outputs": [
        {
          "internalType": "address",
          "name": "",
          "type": "address"
        }
      ],
      "stateMutability": "view",
      "type": "function"
    },
    {
      "inputs": [
        {
          "internalType": "address",
          "name": "owner",
          "type": "address"
        },
        {
          "internalType": "address",
          "name": "operator",
          "type": "address"
        }
      ],
      "name": "isApprovedForAll",
      "outputs": [
        {
          "internalType": "bool",
          "name": "",
          "type": "bool"
        }
      ],
      "stateMutability": "view",
      "type": "function"
    },
    {
      "inputs": [],
      "name": "name",
      "outputs": [
        {
          "internalType": "string",
          "name": "",
          "type": "string"
        }
      ],
      "stateMutability": "view",
      "type": "function"
    },
    {
      "inputs": [],
      "name": "owner",
      "outputs": [
        {
          "internalType": "address",
          "name": "",
          "type": "address"
        }
      ],
      "stateMutability": "view",
      "type": "function"
    },
    {
      "inputs": [
        {
          "internalType": "uint256",
          "name": "tokenId",
          "type": "uint256"
        }
      ],
      "name": "ownerOf",
      "outputs": [
        {
          "internalType": "address",
          "name": "",
          "type": "address"
        }
      ],
      "stateMutability": "view",
      "type": "function"
    },
    {
      "inputs": [
        {
          "internalType": "bytes4",
          "name": "interfaceId",
          "type": "bytes4"
        }
      ],
      "name": "supportsInterface",
      "outputs": [
        {
          "internalType": "bool",
          "name": "",
          "type": "bool"
        }
      ],
      "stateMutability": "view",
      "type": "function"
    },
    {
      "inputs": [],
      "name": "symbol",
      "outputs": [
        {
          "internalType": "string",
          "name": "",
          "type": "string"
        }
      ],
      "stateMutability": "view",
      "type": "function"
    },
    {
      "inputs": [
        {
          "internalType": "uint256",
          "name": "index",
          "type": "uint256"
        }
      ],
      "name": "tokenByIndex",
      "outputs": [
        {
          "internalType": "uint256",
          "name": "",
          "type": "uint256"
        }
      ],
      "stateMutability": "view",
      "type": "function"
    },
    {
      "inputs": [
        {
          "internalType": "address",
          "name": "owner",
          "type": "address"
        },
        {
          "internalType": "uint256",
          "name": "index",
          "type": "uint256"
        }
      ],
      "name": "tokenOfOwnerByIndex",
      "outputs": [
        {
          "internalType": "uint256",
          "name": "",
          "type": "uint256"
        }
      ],
      "stateMutability": "view",
      "type": "function"
    },
    {
      "inputs": [
        {
          "internalType": "uint256",
          "name": "tokenId",
          "type": "uint256"
        }
      ],
      "name": "tokenURI",
      "outputs": [
        {
          "internalType": "string",
          "name": "",
          "type": "string"
        }
      ],
      "stateMutability": "view",
      "type": "function"
    },
    {
      "inputs": [],
      "name": "totalSupply",
      "outputs": [
        {
          "internalType": "uint256",
          "name": "",
          "type": "uint256"
        }
      ],
      "stateMutability": "view",
      "type": "function"
    }
  ],
  "bytecode": "0x60806040523480156200001157600080fd5b506040518060400160405280600a81526020017f4372797374616c4e4654000000000000000000000000000000000000000000008152506040518060400160405280600481526020017f434e465400000000000000000000000000000000000000000000000000000000815250816000908051906020019062000096929190620001a6565b508060019080519060200190620000af929190620001a6565b505050620000d2620000c6620000d860201b60201c565b620000e060201b60201c565b620002bb565b600033905090565b6000600b60009054906101000a900473ffffffffffffffffffffffffffffffffffffffff16905081600b60006101000a81548173ffffffffffffffffffffffffffffffffffffffff021916908373ffffffffffffffffffffffffffffffffffffffff1602179055508173ffffffffffffffffffffffffffffffffffffffff168173ffffffffffffffffffffffffffffffffffffffff167f8be0079c531659141344cd1fd0a4f28419497f9722a3daafe3b4186f6b6457e060405160405180910390a35050565b828054620001b49062000256565b90600052602060002090601f016020900481019282620001d8576000855562000224565b82601f10620001f357805160ff191683800117855562000224565b8280016001018555821562000224579182015b828111156200022357825182559160200191906001019062000206565b5b50905062000233919062000237565b5090565b5b808211156200025257600081600090555060010162000238565b5090565b600060028204905060018216806200026f57607f821691505b602082108114156200028657620002856200028c565b5b50919050565b7f4e487b7100000000000000000000000000000000000000000000000000000000600052602260045260246000fd5b61385b80620002cb6000396000f3fe608060405234801561001057600080fd5b506004361061012c5760003560e01c806370a08231116100ad578063b88d4fde11610071578063b88d4fde14610343578063c87b56dd1461035f578063d204c45e1461038f578063e985e9c5146103ab578063f2fde38b146103db5761012c565b806370a08231146102b1578063715018a6146102e15780638da5cb5b146102eb57806395d89b4114610309578063a22cb465146103275761012c565b806323b872dd116100f457806323b872dd146101e95780632f745c591461020557806342842e0e146102355780634f6ccce7146102515780636352211e146102815761012c565b806301ffc9a71461013157806306fdde0314610161578063081812fc1461017f578063095ea7b3146101af57806318160ddd146101cb575b600080fd5b61014b60048036038101906101469190612668565b6103f7565b6040516101589190612b06565b60405180910390f35b610169610409565b6040516101769190612b21565b60405180910390f35b610199600480360381019061019491906126c2565b61049b565b6040516101a69190612a9f565b60405180910390f35b6101c960048036038101906101c49190612628565b610520565b005b6101d3610638565b6040516101e09190612dc3565b60405180910390f35b61020360048036038101906101fe91906124b6565b610645565b005b61021f600480360381019061021a9190612628565b6106a5565b60405161022c9190612dc3565b60405180910390f35b61024f600480360381019061024a91906124b6565b61074a565b005b61026b600480360381019061026691906126c2565b61076a565b6040516102789190612dc3565b60405180910390f35b61029b600480360381019061029691906126c2565b6107db565b6040516102a89190612a9f565b60405180910390f35b6102cb60048036038101906102c69190612449565b61088d565b6040516102d89190612dc3565b60405180910390f35b6102e9610945565b005b6102f36109cd565b6040516103009190612a9f565b60405180910390f35b6103116109f7565b60405161031e9190612b21565b60405180910390f35b610341600480360381019061033c919061258c565b610a89565b005b61035d60048036038101906103589190612509565b610a9f565b005b610379600480360381019061037491906126c2565b610b01565b6040516103869190612b21565b60405180910390f35b6103a960048036038101906103a491906125cc565b610b13565b005b6103c560048036038101906103c09190612476565b610bc0565b6040516103d29190612b06565b60405180910390f35b6103f560048036038101906103f09190612449565b610c54565b005b600061040282610d4c565b9050919050565b60606000805461041890613019565b80601f016020809104026020016040519081016040528092919081815260200182805461044490613019565b80156104915780601f1061046657610100808354040283529160200191610491565b820191906000526020600020905b81548152906001019060200180831161047457829003601f168201915b5050505050905090565b60006104a682610dc6565b6104e5576040517f08c379a00000000000000000000000000000000000000000000000000000000081526004016104dc90612d03565b60405180910390fd5b6004600083815260200190815260200160002060009054906101000a900473ffffffffffffffffffffffffffffffffffffffff169050919050565b600061052b826107db565b90508073ffffffffffffffffffffffffffffffffffffffff168373ffffffffffffffffffffffffffffffffffffffff16141561059c576040517f08c379a000000000000000000000000000000000000000000000000000000000815260040161059390612d63565b60405180910390fd5b8073ffffffffffffffffffffffffffffffffffffffff166105bb610e32565b73ffffffffffffffffffffffffffffffffffffffff1614806105ea57506105e9816105e4610e32565b610bc0565b5b610629576040517f08c379a000000000000000000000000000000000000000000000000000000000815260040161062090612c43565b60405180910390fd5b6106338383610e3a565b505050565b6000600880549050905090565b610656610650610e32565b82610ef3565b610695576040517f08c379a000000000000000000000000000000000000000000000000000000000815260040161068c90612d83565b60405180910390fd5b6106a0838383610fd1565b505050565b60006106b08361088d565b82106106f1576040517f08c379a00000000000000000000000000000000000000000000000000000000081526004016106e890612b43565b60405180910390fd5b600660008473ffffffffffffffffffffffffffffffffffffffff1673ffffffffffffffffffffffffffffffffffffffff168152602001908152602001600020600083815260200190815260200160002054905092915050565b61076583838360405180602001604052806000815250610a9f565b505050565b6000610774610638565b82106107b5576040517f08c379a00000000000000000000000000000000000000000000000000000000081526004016107ac90612da3565b60405180910390fd5b600882815481106107c9576107c86131b2565b5b90600052602060002001549050919050565b6000806002600084815260200190815260200160002060009054906101000a900473ffffffffffffffffffffffffffffffffffffffff169050600073ffffffffffffffffffffffffffffffffffffffff168173ffffffffffffffffffffffffffffffffffffffff161415610884576040517f08c379a000000000000000000000000000000000000000000000000000000000815260040161087b90612c83565b60405180910390fd5b80915050919050565b60008073ffffffffffffffffffffffffffffffffffffffff168273ffffffffffffffffffffffffffffffffffffffff1614156108fe576040517f08c379a00000000000000000000000000000000000000000000000000000000081526004016108f590612c63565b60405180910390fd5b600360008373ffffffffffffffffffffffffffffffffffffffff1673ffffffffffffffffffffffffffffffffffffffff168152602001908152602001600020549050919050565b61094d610e32565b73ffffffffffffffffffffffffffffffffffffffff1661096b6109cd565b73ffffffffffffffffffffffffffffffffffffffff16146109c1576040517f08c379a00000000000000000000000000000000000000000000000000000000081526004016109b890612d23565b60405180910390fd5b6109cb6000611238565b565b6000600b60009054906101000a900473ffffffffffffffffffffffffffffffffffffffff16905090565b606060018054610a0690613019565b80601f0160208091040260200160405190810160405280929190818152602001828054610a3290613019565b8015610a7f5780601f10610a5457610100808354040283529160200191610a7f565b820191906000526020600020905b815481529060010190602001808311610a6257829003601f168201915b5050505050905090565b610a9b610a94610e32565b83836112fe565b5050565b610ab0610aaa610e32565b83610ef3565b610aef576040517f08c379a0000000000000000000000000000000000000000000000000000000008152600401610ae690612d83565b60405180910390fd5b610afb8484848461146b565b50505050565b6060610b0c826114c7565b9050919050565b610b1b610e32565b73ffffffffffffffffffffffffffffffffffffffff16610b396109cd565b73ffffffffffffffffffffffffffffffffffffffff1614610b8f576040517f08c379a0000000000000000000000000000000000000000000000000000000008152600401610b8690612d23565b60405180910390fd5b6000610b9b600c611619565b9050610ba7600c611627565b610bb1838261163d565b610bbb818361165b565b505050565b6000600560008473ffffffffffffffffffffffffffffffffffffffff1673ffffffffffffffffffffffffffffffffffffffff16815260200190815260200160002060008373ffffffffffffffffffffffffffffffffffffffff1673ffffffffffffffffffffffffffffffffffffffff16815260200190815260200160002060009054906101000a900460ff16905092915050565b610c5c610e32565b73ffffffffffffffffffffffffffffffffffffffff16610c7a6109cd565b73ffffffffffffffffffffffffffffffffffffffff1614610cd0576040517f08c379a0000000000000000000000000000000000000000000000000000000008152600401610cc790612d23565b60405180910390fd5b600073ffffffffffffffffffffffffffffffffffffffff168173ffffffffffffffffffffffffffffffffffffffff161415610d40576040517f08c379a0000000000000000000000000000000000000000000000000000000008152600401610d3790612b83565b60405180910390fd5b610d4981611238565b50565b60007f780e9d63000000000000000000000000000000000000000000000000000000007bffffffffffffffffffffffffffffffffffffffffffffffffffffffff1916827bffffffffffffffffffffffffffffffffffffffffffffffffffffffff19161480610dbf5750610dbe826116cf565b5b9050919050565b60008073ffffffffffffffffffffffffffffffffffffffff166002600084815260200190815260200160002060009054906101000a900473ffffffffffffffffffffffffffffffffffffffff1673ffffffffffffffffffffffffffffffffffffffff1614159050919050565b600033905090565b816004600083815260200190815260200160002060006101000a81548173ffffffffffffffffffffffffffffffffffffffff021916908373ffffffffffffffffffffffffffffffffffffffff160217905550808273ffffffffffffffffffffffffffffffffffffffff16610ead836107db565b73ffffffffffffffffffffffffffffffffffffffff167f8c5be1e5ebec7d5bd14f71427d1e84f3dd0314c0f7b2291e5b200ac8c7c3b92560405160405180910390a45050565b6000610efe82610dc6565b610f3d576040517f08c379a0000000000000000000000000000000000000000000000000000000008152600401610f3490612c23565b60405180910390fd5b6000610f48836107db565b90508073ffffffffffffffffffffffffffffffffffffffff168473ffffffffffffffffffffffffffffffffffffffff161480610fb757508373ffffffffffffffffffffffffffffffffffffffff16610f9f8461049b565b73ffffffffffffffffffffffffffffffffffffffff16145b80610fc85750610fc78185610bc0565b5b91505092915050565b8273ffffffffffffffffffffffffffffffffffffffff16610ff1826107db565b73ffffffffffffffffffffffffffffffffffffffff1614611047576040517f08c379a000000000000000000000000000000000000000000000000000000000815260040161103e90612ba3565b60405180910390fd5b600073ffffffffffffffffffffffffffffffffffffffff168273ffffffffffffffffffffffffffffffffffffffff1614156110b7576040517f08c379a00000000000000000000000000000000000000000000000000000000081526004016110ae90612be3565b60405180910390fd5b6110c28383836117b1565b6110cd600082610e3a565b6001600360008573ffffffffffffffffffffffffffffffffffffffff1673ffffffffffffffffffffffffffffffffffffffff168152602001908152602001600020600082825461111d9190612f2f565b925050819055506001600360008473ffffffffffffffffffffffffffffffffffffffff1673ffffffffffffffffffffffffffffffffffffffff16815260200190815260200160002060008282546111749190612ea8565b92505081905550816002600083815260200190815260200160002060006101000a81548173ffffffffffffffffffffffffffffffffffffffff021916908373ffffffffffffffffffffffffffffffffffffffff160217905550808273ffffffffffffffffffffffffffffffffffffffff168473ffffffffffffffffffffffffffffffffffffffff167fddf252ad1be2c89b69c2b068fc378daa952ba7f163c4a11628f55a4df523b3ef60405160405180910390a46112338383836117c1565b505050565b6000600b60009054906101000a900473ffffffffffffffffffffffffffffffffffffffff16905081600b60006101000a81548173ffffffffffffffffffffffffffffffffffffffff021916908373ffffffffffffffffffffffffffffffffffffffff1602179055508173ffffffffffffffffffffffffffffffffffffffff168173ffffffffffffffffffffffffffffffffffffffff167f8be0079c531659141344cd1fd0a4f28419497f9722a3daafe3b4186f6b6457e060405160405180910390a35050565b8173ffffffffffffffffffffffffffffffffffffffff168373ffffffffffffffffffffffffffffffffffffffff16141561136d576040517f08c379a000000000000000000000000000000000000000000000000000000000815260040161136490612c03565b60405180910390fd5b80600560008573ffffffffffffffffffffffffffffffffffffffff1673ffffffffffffffffffffffffffffffffffffffff16815260200190815260200160002060008473ffffffffffffffffffffffffffffffffffffffff1673ffffffffffffffffffffffffffffffffffffffff16815260200190815260200160002060006101000a81548160ff0219169083151502179055508173ffffffffffffffffffffffffffffffffffffffff168373ffffffffffffffffffffffffffffffffffffffff167f17307eab39ab6107e8899845ad3d59bd9653f200f220920489ca2b5937696c318360405161145e9190612b06565b60405180910390a3505050565b611476848484610fd1565b611482848484846117c6565b6114c1576040517f08c379a00000000000000000000000000000000000000000000000000000000081526004016114b890612b63565b60405180910390fd5b50505050565b60606114d282610dc6565b611511576040517f08c379a000000000000000000000000000000000000000000000000000000000815260040161150890612ce3565b60405180910390fd5b6000600a6000848152602001908152602001600020805461153190613019565b80601f016020809104026020016040519081016040528092919081815260200182805461155d90613019565b80156115aa5780601f1061157f576101008083540402835291602001916115aa565b820191906000526020600020905b81548152906001019060200180831161158d57829003601f168201915b5050505050905060006115bb61195d565b90506000815114156115d1578192505050611614565b6000825111156116065780826040516020016115ee929190612a7b565b60405160208183030381529060405292505050611614565b61160f84611974565b925050505b919050565b600081600001549050919050565b6001816000016000828254019250508190555050565b611657828260405180602001604052806000815250611a1b565b5050565b61166482610dc6565b6116a3576040517f08c379a000000000000000000000000000000000000000000000000000000000815260040161169a90612ca3565b60405180910390fd5b80600a600084815260200190815260200160002090805190602001906116ca92919061225d565b505050565b60007f80ac58cd000000000000000000000000000000000000000000000000000000007bffffffffffffffffffffffffffffffffffffffffffffffffffffffff1916827bffffffffffffffffffffffffffffffffffffffffffffffffffffffff1916148061179a57507f5b5e139f000000000000000000000000000000000000000000000000000000007bffffffffffffffffffffffffffffffffffffffffffffffffffffffff1916827bffffffffffffffffffffffffffffffffffffffffffffffffffffffff1916145b806117aa57506117a982611a76565b5b9050919050565b6117bc838383611ae0565b505050565b505050565b60006117e78473ffffffffffffffffffffffffffffffffffffffff16611bf4565b15611950578373ffffffffffffffffffffffffffffffffffffffff1663150b7a02611810610e32565b8786866040518563ffffffff1660e01b81526004016118329493929190612aba565b602060405180830381600087803b15801561184c57600080fd5b505af192505050801561187d57506040513d601f19601f8201168201806040525081019061187a9190612695565b60015b611900573d80600081146118ad576040519150601f19603f3d011682016040523d82523d6000602084013e6118b2565b606091505b506000815114156118f8576040517f08c379a00000000000000000000000000000000000000000000000000000000081526004016118ef90612b63565b60405180910390fd5b805181602001fd5b63150b7a0260e01b7bffffffffffffffffffffffffffffffffffffffffffffffffffffffff1916817bffffffffffffffffffffffffffffffffffffffffffffffffffffffff191614915050611955565b600190505b949350505050565b606060405180602001604052806000815250905090565b606061197f82610dc6565b6119be576040517f08c379a00000000000000000000000000000000000000000000000000000000081526004016119b590612d43565b60405180910390fd5b60006119c861195d565b905060008151116119e85760405180602001604052806000815250611a13565b806119f284611c17565b604051602001611a03929190612a7b565b6040516020818303038152906040525b915050919050565b611a258383611d78565b611a3260008484846117c6565b611a71576040517f08c379a0000000000000000000000000000000000000000000000000000000008152600401611a6890612b63565b60405180910390fd5b505050565b60007f01ffc9a7000000000000000000000000000000000000000000000000000000007bffffffffffffffffffffffffffffffffffffffffffffffffffffffff1916827bffffffffffffffffffffffffffffffffffffffffffffffffffffffff1916149050919050565b611aeb838383611f52565b600073ffffffffffffffffffffffffffffffffffffffff168373ffffffffffffffffffffffffffffffffffffffff161415611b2e57611b2981611f57565b611b6d565b8173ffffffffffffffffffffffffffffffffffffffff168373ffffffffffffffffffffffffffffffffffffffff1614611b6c57611b6b8382611fa0565b5b5b600073ffffffffffffffffffffffffffffffffffffffff168273ffffffffffffffffffffffffffffffffffffffff161415611bb057611bab8161210d565b611bef565b8273ffffffffffffffffffffffffffffffffffffffff168273ffffffffffffffffffffffffffffffffffffffff1614611bee57611bed82826121de565b5b5b505050565b6000808273ffffffffffffffffffffffffffffffffffffffff163b119050919050565b60606000821415611c5f576040518060400160405280600181526020017f30000000000000000000000000000000000000000000000000000000000000008152509050611d73565b600082905060005b60008214611c91578080611c7a9061307c565b915050600a82611c8a9190612efe565b9150611c67565b60008167ffffffffffffffff811115611cad57611cac6131e1565b5b6040519080825280601f01601f191660200182016040528015611cdf5781602001600182028036833780820191505090505b5090505b60008514611d6c57600182611cf89190612f2f565b9150600a85611d0791906130c5565b6030611d139190612ea8565b60f81b818381518110611d2957611d286131b2565b5b60200101907effffffffffffffffffffffffffffffffffffffffffffffffffffffffffffff1916908160001a905350600a85611d659190612efe565b9450611ce3565b8093505050505b919050565b600073ffffffffffffffffffffffffffffffffffffffff168273ffffffffffffffffffffffffffffffffffffffff161415611de8576040517f08c379a0000000000000000000000000000000000000000000000000000000008152600401611ddf90612cc3565b60405180910390fd5b611df181610dc6565b15611e31576040517f08c379a0000000000000000000000000000000000000000000000000000000008152600401611e2890612bc3565b60405180910390fd5b611e3d600083836117b1565b6001600360008473ffffffffffffffffffffffffffffffffffffffff1673ffffffffffffffffffffffffffffffffffffffff1681526020019081526020016000206000828254611e8d9190612ea8565b92505081905550816002600083815260200190815260200160002060006101000a81548173ffffffffffffffffffffffffffffffffffffffff021916908373ffffffffffffffffffffffffffffffffffffffff160217905550808273ffffffffffffffffffffffffffffffffffffffff16600073ffffffffffffffffffffffffffffffffffffffff167fddf252ad1be2c89b69c2b068fc378daa952ba7f163c4a11628f55a4df523b3ef60405160405180910390a4611f4e600083836117c1565b5050565b505050565b6008805490506009600083815260200190815260200160002081905550600881908060018154018082558091505060019003906000526020600020016000909190919091505550565b60006001611fad8461088d565b611fb79190612f2f565b905060006007600084815260200190815260200160002054905081811461209c576000600660008673ffffffffffffffffffffffffffffffffffffffff1673ffffffffffffffffffffffffffffffffffffffff168152602001908152602001600020600084815260200190815260200160002054905080600660008773ffffffffffffffffffffffffffffffffffffffff1673ffffffffffffffffffffffffffffffffffffffff168152602001908152602001600020600084815260200190815260200160002081905550816007600083815260200190815260200160002081905550505b6007600084815260200190815260200160002060009055600660008573ffffffffffffffffffffffffffffffffffffffff1673ffffffffffffffffffffffffffffffffffffffff16815260200190815260200160002060008381526020019081526020016000206000905550505050565b600060016008805490506121219190612f2f565b9050600060096000848152602001908152602001600020549050600060088381548110612151576121506131b2565b5b906000526020600020015490508060088381548110612173576121726131b2565b5b9060005260206000200181905550816009600083815260200190815260200160002081905550600960008581526020019081526020016000206000905560088054806121c2576121c1613183565b5b6001900381819060005260206000200160009055905550505050565b60006121e98361088d565b905081600660008573ffffffffffffffffffffffffffffffffffffffff1673ffffffffffffffffffffffffffffffffffffffff168152602001908152602001600020600083815260200190815260200160002081905550806007600084815260200190815260200160002081905550505050565b82805461226990613019565b90600052602060002090601f01602090048101928261228b57600085556122d2565b82601f106122a457805160ff19168380011785556122d2565b828001600101855582156122d2579182015b828111156122d15782518255916020019190600101906122b6565b5b5090506122df91906122e3565b5090565b5b808211156122fc5760008160009055506001016122e4565b5090565b600061231361230e84612e03565b612dde565b90508281526020810184848401111561232f5761232e613215565b5b61233a848285612fd7565b509392505050565b600061235561235084612e34565b612dde565b90508281526020810184848401111561237157612370613215565b5b61237c848285612fd7565b509392505050565b600081359050612393816137c9565b92915050565b6000813590506123a8816137e0565b92915050565b6000813590506123bd816137f7565b92915050565b6000815190506123d2816137f7565b92915050565b600082601f8301126123ed576123ec613210565b5b81356123fd848260208601612300565b91505092915050565b600082601f83011261241b5761241a613210565b5b813561242b848260208601612342565b91505092915050565b6000813590506124438161380e565b92915050565b60006020828403121561245f5761245e61321f565b5b600061246d84828501612384565b91505092915050565b6000806040838503121561248d5761248c61321f565b5b600061249b85828601612384565b92505060206124ac85828601612384565b9150509250929050565b6000806000606084860312156124cf576124ce61321f565b5b60006124dd86828701612384565b93505060206124ee86828701612384565b92505060406124ff86828701612434565b9150509250925092565b600080600080608085870312156125235761252261321f565b5b600061253187828801612384565b945050602061254287828801612384565b935050604061255387828801612434565b925050606085013567ffffffffffffffff8111156125745761257361321a565b5b612580878288016123d8565b91505092959194509250565b600080604083850312156125a3576125a261321f565b5b60006125b185828601612384565b92505060206125c285828601612399565b9150509250929050565b600080604083850312156125e3576125e261321f565b5b60006125f185828601612384565b925050602083013567ffffffffffffffff8111156126125761261161321a565b5b61261e85828601612406565b9150509250929050565b6000806040838503121561263f5761263e61321f565b5b600061264d85828601612384565b925050602061265e85828601612434565b9150509250929050565b60006020828403121561267e5761267d61321f565b5b600061268c848285016123ae565b91505092915050565b6000602082840312156126ab576126aa61321f565b5b60006126b9848285016123c3565b91505092915050565b6000602082840312156126d8576126d761321f565b5b60006126e684828501612434565b91505092915050565b6126f881612f63565b82525050565b61270781612f75565b82525050565b600061271882612e65565b6127228185612e7b565b9350612732818560208601612fe6565b61273b81613224565b840191505092915050565b600061275182612e70565b61275b8185612e8c565b935061276b818560208601612fe6565b61277481613224565b840191505092915050565b600061278a82612e70565b6127948185612e9d565b93506127a4818560208601612fe6565b80840191505092915050565b60006127bd602b83612e8c565b91506127c882613235565b604082019050919050565b60006127e0603283612e8c565b91506127eb82613284565b604082019050919050565b6000612803602683612e8c565b915061280e826132d3565b604082019050919050565b6000612826602583612e8c565b915061283182613322565b604082019050919050565b6000612849601c83612e8c565b915061285482613371565b602082019050919050565b600061286c602483612e8c565b91506128778261339a565b604082019050919050565b600061288f601983612e8c565b915061289a826133e9565b602082019050919050565b60006128b2602c83612e8c565b91506128bd82613412565b604082019050919050565b60006128d5603883612e8c565b91506128e082613461565b604082019050919050565b60006128f8602a83612e8c565b9150612903826134b0565b604082019050919050565b600061291b602983612e8c565b9150612926826134ff565b604082019050919050565b600061293e602e83612e8c565b91506129498261354e565b604082019050919050565b6000612961602083612e8c565b915061296c8261359d565b602082019050919050565b6000612984603183612e8c565b915061298f826135c6565b604082019050919050565b60006129a7602c83612e8c565b91506129b282613615565b604082019050919050565b60006129ca602083612e8c565b91506129d582613664565b602082019050919050565b60006129ed602f83612e8c565b91506129f88261368d565b604082019050919050565b6000612a10602183612e8c565b9150612a1b826136dc565b604082019050919050565b6000612a33603183612e8c565b9150612a3e8261372b565b604082019050919050565b6000612a56602c83612e8c565b9150612a618261377a565b604082019050919050565b612a7581612fcd565b82525050565b6000612a87828561277f565b9150612a93828461277f565b91508190509392505050565b6000602082019050612ab460008301846126ef565b92915050565b6000608082019050612acf60008301876126ef565b612adc60208301866126ef565b612ae96040830185612a6c565b8181036060830152612afb818461270d565b905095945050505050565b6000602082019050612b1b60008301846126fe565b92915050565b60006020820190508181036000830152612b3b8184612746565b905092915050565b60006020820190508181036000830152612b5c816127b0565b9050919050565b60006020820190508181036000830152612b7c816127d3565b9050919050565b60006020820190508181036000830152612b9c816127f6565b9050919050565b60006020820190508181036000830152612bbc81612819565b9050919050565b60006020820190508181036000830152612bdc8161283c565b9050919050565b60006020820190508181036000830152612bfc8161285f565b9050919050565b60006020820190508181036000830152612c1c81612882565b9050919050565b60006020820190508181036000830152612c3c816128a5565b9050919050565b60006020820190508181036000830152612c5c816128c8565b9050919050565b60006020820190508181036000830152612c7c816128eb565b9050919050565b60006020820190508181036000830152612c9c8161290e565b9050919050565b60006020820190508181036000830152612cbc81612931565b9050919050565b60006020820190508181036000830152612cdc81612954565b9050919050565b60006020820190508181036000830152612cfc81612977565b9050919050565b60006020820190508181036000830152612d1c8161299a565b9050919050565b60006020820190508181036000830152612d3c816129bd565b9050919050565b60006020820190508181036000830152612d5c816129e0565b9050919050565b60006020820190508181036000830152612d7c81612a03565b9050919050565b60006020820190508181036000830152612d9c81612a26565b9050919050565b60006020820190508181036000830152612dbc81612a49565b9050919050565b6000602082019050612dd86000830184612a6c565b92915050565b6000612de8612df9565b9050612df4828261304b565b919050565b6000604051905090565b600067ffffffffffffffff821115612e1e57612e1d6131e1565b5b612e2782613224565b9050602081019050919050565b600067ffffffffffffffff821115612e4f57612e4e6131e1565b5b612e5882613224565b9050602081019050919050565b600081519050919050565b600081519050919050565b600082825260208201905092915050565b600082825260208201905092915050565b600081905092915050565b6000612eb382612fcd565b9150612ebe83612fcd565b9250827fffffffffffffffffffffffffffffffffffffffffffffffffffffffffffffffff03821115612ef357612ef26130f6565b5b828201905092915050565b6000612f0982612fcd565b9150612f1483612fcd565b925082612f2457612f23613125565b5b828204905092915050565b6000612f3a82612fcd565b9150612f4583612fcd565b925082821015612f5857612f576130f6565b5b828203905092915050565b6000612f6e82612fad565b9050919050565b60008115159050919050565b60007fffffffff0000000000000000000000000000000000000000000000000000000082169050919050565b600073ffffffffffffffffffffffffffffffffffffffff82169050919050565b6000819050919050565b82818337600083830152505050565b60005b83811015613004578082015181840152602081019050612fe9565b83811115613013576000848401525b50505050565b6000600282049050600182168061303157607f821691505b6020821081141561304557613044613154565b5b50919050565b61305482613224565b810181811067ffffffffffffffff82111715613073576130726131e1565b5b80604052505050565b600061308782612fcd565b91507fffffffffffffffffffffffffffffffffffffffffffffffffffffffffffffffff8214156130ba576130b96130f6565b5b600182019050919050565b60006130d082612fcd565b91506130db83612fcd565b9250826130eb576130ea613125565b5b828206905092915050565b7f4e487b7100000000000000000000000000000000000000000000000000000000600052601160045260246000fd5b7f4e487b7100000000000000000000000000000000000000000000000000000000600052601260045260246000fd5b7f4e487b7100000000000000000000000000000000000000000000000000000000600052602260045260246000fd5b7f4e487b7100000000000000000000000000000000000000000000000000000000600052603160045260246000fd5b7f4e487b7100000000000000000000000000000000000000000000000000000000600052603260045260246000fd5b7f4e487b7100000000000000000000000000000000000000000000000000000000600052604160045260246000fd5b600080fd5b600080fd5b600080fd5b600080fd5b6000601f19601f8301169050919050565b7f455243373231456e756d657261626c653a206f776e657220696e646578206f7560008201527f74206f6620626f756e6473000000000000000000000000000000000000000000602082015250565b7f4552433732313a207472616e7366657220746f206e6f6e20455243373231526560008201527f63656976657220696d706c656d656e7465720000000000000000000000000000602082015250565b7f4f776e61626c653a206e6577206f776e657220697320746865207a65726f206160008201527f6464726573730000000000000000000000000000000000000000000000000000602082015250565b7f4552433732313a207472616e736665722066726f6d20696e636f72726563742060008201527f6f776e6572000000000000000000000000000000000000000000000000000000602082015250565b7f4552433732313a20746f6b656e20616c7265616479206d696e74656400000000600082015250565b7f4552433732313a207472616e7366657220746f20746865207a65726f2061646460008201527f7265737300000000000000000000000000000000000000000000000000000000602082015250565b7f4552433732313a20617070726f766520746f2063616c6c657200000000000000600082015250565b7f4552433732313a206f70657261746f7220717565727920666f72206e6f6e657860008201527f697374656e7420746f6b656e0000000000000000000000000000000000000000602082015250565b7f4552433732313a20617070726f76652063616c6c6572206973206e6f74206f7760008201527f6e6572206e6f7220617070726f76656420666f7220616c6c0000000000000000602082015250565b7f4552433732313a2062616c616e636520717565727920666f7220746865207a6560008201527f726f206164647265737300000000000000000000000000000000000000000000602082015250565b7f4552433732313a206f776e657220717565727920666f72206e6f6e657869737460008201527f656e7420746f6b656e0000000000000000000000000000000000000000000000602082015250565b7f45524337323155524953746f726167653a2055524920736574206f66206e6f6e60008201527f6578697374656e7420746f6b656e000000000000000000000000000000000000602082015250565b7f4552433732313a206d696e7420746f20746865207a65726f2061646472657373600082015250565b7f45524337323155524953746f726167653a2055524920717565727920666f722060008201527f6e6f6e6578697374656e7420746f6b656e000000000000000000000000000000602082015250565b7f4552433732313a20617070726f76656420717565727920666f72206e6f6e657860008201527f697374656e7420746f6b656e0000000000000000000000000000000000000000602082015250565b7f4f776e61626c653a2063616c6c6572206973206e6f7420746865206f776e6572600082015250565b7f4552433732314d657461646174613a2055524920717565727920666f72206e6f60008201527f6e6578697374656e7420746f6b656e0000000000000000000000000000000000602082015250565b7f4552433732313a20617070726f76616c20746f2063757272656e74206f776e6560008201527f7200000000000000000000000000000000000000000000000000000000000000602082015250565b7f4552433732313a207472616e736665722063616c6c6572206973206e6f74206f60008201527f776e6572206e6f7220617070726f766564000000000000000000000000000000602082015250565b7f455243373231456e756d657261626c653a20676c6f62616c20696e646578206f60008201527f7574206f6620626f756e64730000000000000000000000000000000000000000602082015250565b6137d281612f63565b81146137dd57600080fd5b50565b6137e981612f75565b81146137f457600080fd5b50565b61380081612f81565b811461380b57600080fd5b50565b61381781612fcd565b811461382257600080fd5b5056fea2646970667358221220a5a12727ae672a4e05ab617233b05ef0fb019af6016a39f3fd7d13487e909d6a64736f6c63430008070033",
  "linkReferences": {},
  "deployedLinkReferences": {}
}